:1000000092C00000ABC00000A9C00000A7C0000063
:10001000A5C00000A3C00000A1C000009FC0000058
:100020009DC000009BC0000099C0000014C40000E7
:10003000B9C4000093C0000091C000008FC0000050
:100040008DC000008BC0000089C0000087C0000088
:1000500085C0000083C0000081C00000E7C100002F
:100060007DC000007BC0000079C0000077C00000A8
:1000700075C000002803530070006500650064002F
:10008000750069006E006F0020004D00650067007C
:1000900061002000320035003600300000003203DD
:1000A000410072006400750069006E006F0020005E
:1000B00028007700770077002E006100720064004E
:1000C000750069006E006F002E0063006300290058
:1000D00000000403090409023E00020100C03209C5
:1000E00004000001020201000524000110042402A2
:1000F000060524060001070582030800FF09040124
:1001000000020A0000000705040240000107058301
:10011000024000011201100102000008EB034B2015
:1001200001000102DC0111241FBECFEFD2E0DEBFCF
:10013000CDBF11E0A0E0B1E0ECE7FFE002C0059028
:100140000D92A831B107D9F722E0A8E1B1E001C0D2
:100150001D92A133B207E1F74CD00EC751CFFC017D
:10016000E058FF4FA081B1816C93A081B1819D01C6
:100170002F5F3F4F2E173F0761F0318320832FB74A
:10018000F894FC01EC57FF4F80818F5F80832FBF75
:10019000089512969C938E931197F1CF84B7877F21
:1001A00084BF0FB6F894A895809160008861809311
:1001B0006000109260000FBE87E690E09093CD0043
:1001C0008093CC0086E08093CA001092C80088E13A
:1001D0008093C900539A5A9A8AB180638AB98BB1C5
:1001E00080638BB92DD384E085BD5F9A579A279899
:1001F0000895D4DF2FB7F89480EA91E0909321021C
:100200008093200290932302809322022FBF2FB766
:10021000F8948BE191E090939C0180939B019093E3
:100220009E0180939D012FBF78948C0183E0F82E6E
:100230009FB7F894809124029FBF8038D1F080E06E
:1002400091E048D6EC0197FD14C0909116019923D6
:1002500051F0863441F460E680EA91E080DF61E0AD
:1002600080EA91E07CDF6C2F80EA91E078DF1092E9
:1002700016018FB7F894C0919F018FBFA89902C053
:10028000C13618F1A89A80919F01882319F05D98D2
:10029000F0921801C15008F042C0809118018823E3
:1002A00041F080911801815080931801811101C0A3
:1002B0005D9A80911901882341F080911901815044
:1002C00080931901811101C05C9A9FB7F8948091C5
:1002D00024029FBF8823F1F0E0912202F0912302D3
:1002E000919182E0E032F807C1F1F0932302E093AC
:1002F00022022FB7F8948091240281508093240227
:100300002FBF8091C80085FFFCCF9093CE005C98F2
:10031000F092190180E091E0CFD5C5D489CFE0916A
:100320009D01F0919E01619181E0EB39F80781F028
:10033000F0939E01E0939D019FB7F89480919F01F7
:10034000815080939F019FBF80E091E067D5A2CF4D
:1003500010939E0100939D01EFCF20EA31E030938E
:10036000230220932202C5CF80E091E013C580E0F4
:1003700091E0ABC40F931F93CF938C01FC01848950
:10038000C0E3813021F0C0E2823009F0C0E0F80122
:100390008389823009F4C860F80185898730E9F1E2
:1003A0008830E9F1863009F4C2601092C9001092D9
:1003B000C8001092CA00F801278530894189528906
:1003C0002115F1EE3F074105510559F1CA01B90167
:1003D000969587957795679560587B47814E9F4F97
:1003E000A3D5215031093093CD002093CC00C09388
:1003F000CA00F80187859089A189B2898115914E3B
:10040000A105B10589F082E08093C80088E9809356
:10041000C900CF911F910F910895C460C6CFC660E7
:10042000C4CF20E130E0DFCF80E0EECF1F920F920B
:100430000FB60F9211242F933F934F935F936F93B7
:100440007F938F939F93AF93BF93EF93FF936091AD
:10045000CE008EB3843019F48BE191E080DEFF9101
:10046000EF91BF91AF919F918F917F916F915F912C
:100470004F913F912F910F900FBE0F901F901895A5
:1004800023B1FC01858580FF07C027FD05C081E001
:10049000809316015F9808955F9A0895292F332756
:1004A0002230310571F02330310581F021303105E2
:1004B000A1F482E190E024E131E0FA01318320836C
:1004C00008958EE390E026ED30E0F7CF9927813054
:1004D000910571F038F0029771F090E080E030E023
:1004E00020E0EBCFE2EDF0E0849190E09F01E5CFDA
:1004F000EEE9F0E0F9CFE4E7F0E0F6CFAC0128E078
:1005000030E080E02417350718F08295807F089549
:100510008F5F220F331FF6CF8093E900EBEEF0E000
:10052000808181608083EDEEF0E010826093EC00CA
:1005300040838091EE00881F8827881F08951092BD
:10054000F40080E08093E9001092F0001092E8003F
:100550001092ED009091EB009E7F9093EB008F5FE7
:10056000853081F708958091290287FF11C080911D
:10057000E80082FF06C08091E8008B778093E80056
:1005800003C08EB38111F3CF08958EB38823E1F3B6
:100590008091E80080FFF9CF8091E8008E77EECF60
:1005A00085E69091EC0090FF06C09091E80090FFE6
:1005B00006C080E008959091E80092FDFACF9EB3C6
:1005C0009923A1F09EB3953099F09091EB0095FDA1
:1005D00011C09091E10092FFE4CF9091E1009B7FE8
:1005E0009093E1008150E9F684E0089582E0089557
:1005F00083E0089581E0089520912F023091300228
:1006000026173707A0F06115710529F42091E8003D
:100610002E772093E80030E06115710551F4311117
:1006200008C08091E80082FF30C080E00895B901E1
:10063000F2CF2091E80023FD30C02091E80022FD98
:10064000F0CF2EB3222359F12EB3253021F1209182
:10065000E80020FFE1CF2091F200FC01CF016115FD
:10066000710511F0283050F031E0283009F030E009
:100670002091E8002E772093E800CECF81918093DF
:10068000F100615071092F5FE9CF8EB3882339F0F3
:100690008EB3853031F683E0089581E0089582E0DD
:1006A000089520912F023091300226173707A0F0CD
:1006B0006115710529F42091E8002E772093E80058
:1006C00030E06115710551F4311108C08091E800E6
:1006D00082FF31C080E00895B901F2CF2091E80097
:1006E00023FD31C02091E80022FDF0CF2EB322235C
:1006F00061F12EB3253029F12091E80020FFE1CFF0
:100700002091F200FC01CF016115710511F0283034
:1007100050F031E0283009F030E02091E8002E77E9
:100720002093E800CECF84918093F100615071094D
:100730002F5F3196E8CF8EB3882339F08EB38530A2
:1007400029F683E0089581E0089582E00895611517
:10075000710529F42091E8002B772093E8006115BA
:10076000710531F48091E80080FF20C080E0089599
:100770002091E80023FD22C02EB3222309F12EB3DD
:100780002530D1F02091E80022FFE9CF2091F2003E
:10079000222301F39C012F5F3F4F4091F100FC01A8
:1007A000408361507109C90189F7D4CF8EB3882382
:1007B00039F08EB38530B1F683E0089581E0089575
:1007C00082E0089542D044D01EBA109227021092BF
:1007D00026021092250284E089BD89B5826089BD18
:1007E00009B400FEFDCF8091D800982F9F77909399
:1007F000D80080688093D800809163008E7F8093BA
:1008000063008091D8008F7D8093D8008091E000B4
:100810008E7F8093E0008091E1008E7F8093E100E5
:100820008091E20081608093E2008091E100877F07
:100830008093E1008091E20088608093E200089557
:10084000C1DF81E08093280208951092E2000895AC
:100850001092E10008951F920F920FB60F9211248B
:100860002F933F934F935F936F937F938F939F93B8
:10087000AF93BF93EF93FF938091E10080FF1BC084
:100880008091E20080FF17C08091E1008E7F80930D
:10089000E1008091E2008E7F8093E2008091E2008F
:1008A00080618093E2008091D80080628093D800BC
:1008B00019BC1EBAF7D18091E10084FF27C0809156
:1008C000E20084FF23C084E089BD89B5826089BDD0
:1008D00009B400FEFDCF8091D8008F7D8093D800B1
:1008E0008091E1008F7E8093E1008091E2008F7E15
:1008F0008093E2008091E20081608093E200809129
:10090000270281114DC081E08EBBCCD18091E100E6
:1009100083FF27C08091E20083FF23C08091E10024
:10092000877F8093E10082E08EBB10922702809146
:10093000E1008E7F8093E1008091E2008E7F8093C2
:10094000E2008091E20080618093E200F8DD42E005
:1009500060E080E0E1DD8091F00088608093F0004D
:10096000A1D18091E10082FF0AC08091E20082FF64
:1009700006C08091E1008B7F8093E10093D1FF91CD
:10098000EF91BF91AF919F918F917F916F915F9107
:100990004F913F912F910F900FBE0F901F90189580
:1009A00084E0B2CF1F920F920FB60F921124FF92E4
:1009B0000F931F932F933F934F935F936F937F9367
:1009C0008F939F93AF93BF93CF93DF93EF93FF9357
:1009D000C9EED0E088818770F82E188200EF10E011
:1009E000F8018081877F808378941DD0F8941882E5
:1009F000F801808188608083F882FF91EF91DF9118
:100A0000CF91BF91AF919F918F917F916F915F91A6
:100A10004F913F912F911F910F91FF900F900FBE1B
:100A20000F901F9018951F93CF93DF93CDB7DEB72C
:100A3000AA970FB6F894DEBF0FBECDBFE9E2F2E091
:100A40008091F100819322E0E133F207C9F78091B0
:100A5000290290912A029A3008F022C1E92FF0E091
:100A6000ED5CFA4F83C23D056205500662055006F3
:100A7000BD05D90550062B063706803881F082382F
:100A800009F00EC180912D0287708093E90080915A
:100A9000EB0085FB882780F91092E90006C0809161
:100AA000250290912602911182609091E800977F33
:100AB0009093E8008093F1001092F1008091E8009B
:100AC0008E772EC0282F2D7F09F0EAC08823D1F021
:100AD000823051F18091E80083FF0AC08091EB00E1
:100AE00080628093EB008091E800877F8093E8002C
:100AF000AA960FB6F894DEBF0FBECDBFDF91CF919F
:100B00001F91089580912B02813021F7933009F0D5
:100B100080E0809326021092E9008091E800877FB0
:100B20008093E80020DDD6CF80912B028111F3CF96
:100B300080912D02877071F28093E9002091EB0083
:100B400020FFC8CF933031F48091EB008062809316
:100B5000EB00E1CF9091EB0090619093EB0021E0EE
:100B600030E001C0220F8A95EAF72093EA00109244
:100B7000EA008091EB008860EACF811191C010916A
:100B80002B028091E800877F8093E800ECDC809165
:100B9000E80080FF0AC0812F8F7792E009F093E090
:100BA0009EBB80688093E30095CF8EB38111EFCF19
:100BB00091CF8058823008F073C080912B029091C1
:100BC0002C028C3D23E0920799F583E08A838AE228
:100BD00089834FB7F894DE01139620E03EE051E29E
:100BE000E32FF0E050935700E49120FF03C0E2951B
:100BF000EF703F5FEF7080E38E0F8A3310F087E372
:100C00008E0F90E08D939D932F5F243149F74FBF56
:100C10008091E800877F8093E8006AE270E0CE016F
:100C20000196EADC8091E8008B778093E80052CF50
:100C3000AE014F5F5F4F60912D0230DCBC01892B0C
:100C400009F448CF9091E800977F9093E80089815C
:100C50009A8127DDE7CF803819F58091E800877FFA
:100C60008093E800809127028093F10027CF8111C3
:100C700017C090912B02923008F02CCF8091E800A1
:100C8000877F8093E800909327026DDC8091270294
:100C9000811104C083E08EBB67DB1CCF84E0FBCFF7
:100CA00066DB18CF0895CF938EB3882359F0C09197
:100CB000E900C7701092E9008091E80083FDB3DE7F
:100CC000C093E900CF9108950895CF93DF93EC018D
:100CD0008091E80083FF0FC0288180912D029091C0
:100CE0002E022817190639F480912A028132C1F0A8
:100CF00028F4803249F1DF91CF9108958232C1F119
:100D00008332C9F7809129028132A9F78091E800E6
:100D1000877F8093E80060912B02CE01D5DF37C03A
:100D200080912902813A39F78091E800877F80938A
:100D3000E80067E070E0CE010F965EDC8091E8008D
:100D40008B778093E800D7CF80912902813299F682
:100D50008091E800877F8093E80067E070E0CE0133
:100D60000F96F5DCCE0106DB8091E8008E77E9CFA7
:100D700080912902813209F0BECF8091E800877FFF
:100D80008093E80080912B028D87CE0179DBDF9183
:100D9000CF91E9CB0F931F93CF93DF93EC01FC012D
:100DA0003D9689E0DF011D928A95E9F78A819B8152
:100DB0002C8110E0211114E00981A0DB812B482F48
:100DC000426061E8802FA8DB882311F18E819F812A
:100DD000288510E0211114E00D8190DB812B482F34
:100DE000426060E8802F98DB882391F08A859B859C
:100DF0002C8510E0211114E0C98580DB812B482F60
:100E0000426061EC8C2FDF91CF911F910F9184CBC9
:100E100080E0DF91CF911F910F910895CF93C62F5E
:100E20002EB32430F1F4FC01478550896189728921
:100E3000452B462B472BA9F081818093E9008091B7
:100E4000E80085FF05C0C093F10080E0CF910895D0
:100E50008091E8008E778093E800A2DB882399F3E5
:100E6000F5CF82E0F3CF2EB3243021F5FC01478586
:100E7000508961897289452B462B472BD9F0818196
:100E80008093E9008091F200811102C080E0089512
:100E90009091E8008091E8008E778093E80095FDBE
:100EA000F5CF7EDB811107C09091E8009E7790938B
:100EB000E800089582E008952EB3243051F4FC0137
:100EC0004785508961897289452B462B472B09F04C
:100ED000CACF08952EB3243019F08FEF9FEF0895F5
:100EE000FC014785508961897289452B462B472B28
:100EF000A1F385818093E9008091E80082FFEDCF26
:100F00008091F200882369F08091F10090E02091B7
:100F1000F200211105C02091E8002B772093E80012
:100F200008958FEF9FEFF3CFA1E21A2EAA1BBB1BF0
:100F3000FD010DC0AA1FBB1FEE1FFF1FA217B307A5
:100F4000E407F50720F0A21BB30BE40BF50B661FBB
:100F5000771F881F991F1A9469F76095709580957F
:100F600090959B01AC01BD01CF010895EE0FFF1FCD
:0C0F70000590F491E02D0994F894FFCF57
:100F7C0000034000000440000002080000000000D4
:080F8C0000000000000001005C
:00000001FF
