:1010000039C0000052C0000050C000004EC00000B7
:101010004CC000004AC0000048C0000046C00000AC
:1010200044C0000042C0000040C000009AC400005C
:101030003CC000003AC0000038C0000036C00000CC
:1010400034C0000032C0000030C000002EC00000DC
:101050002CC000002AC0000028C0000026C00000EC
:1010600024C0000022C0000020C000001EC00000FC
:101070001CC0000011241FBECFEFD2E0DEBFCDBFE9
:1010800011E0A0E0B1E0E0E4FCE102C005900D92C7
:10109000A836B107D9F721E0A8E6B1E001C01D925A
:1010A000A738B207E1F726D1C9C5AACF815080F091
:1010B0009091F20091110DC09091E8009B7F909368
:1010C000E8009091E80092FDF1CF9EB39111F9CF25
:1010D00008959091F100EACFE1E7F1E035812481B4
:1010E0009381828190936A0180936B01C9019093EF
:1010F0006801809369010895CF93DF9300D000D0F9
:1011000000D0CDB7DEB780917101843009F45CC0A6
:1011100068F48130E9F08330A1F126960FB6F89497
:10112000DEBF0FBECDBFDF91CF910895853009F4AA
:1011300098C0863091F780917201833071F7809169
:1011400073018111EACF8091740180936C01E5CF26
:1011500080917201823008F7BFDF809172018111A6
:101160000CC080916A0190916B0123E0FC012093F7
:101170005700E89507B600FCFDCF85E0809300019D
:10118000CCCF80917201982F9D7F19F4A5DF89E063
:10119000F5CF813009F0C1CFF0E0E0E084918F3FDE
:1011A00069F010926C01F0936B01E0936A018AE0A0
:1011B0008093000185E080936F01AFCF3196E115F8
:1011C00020E1F20759F7A9CF80917201833039F5F8
:1011D00081E08093700180917301209177013091BB
:1011E0007801232B61F0813009F097CF909176013F
:1011F0008091750190936D0180936E018ECF811166
:101200000BC088E19CE00FB6F894A895809360002D
:101210000FBE9093600081CF109201017ECF8111AB
:101220007CCF809173018F3F09F077CFF0E0E0E051
:1012300083E095E080935700E89507B600FCFDCF6A
:1012400090935700E89507B600FCFDCFE058FF4F9C
:10125000E11520E1F20771F781E180935700E895ED
:101260005CCF8091610190916201A09163018C83B8
:101270009D83AE838091640190916501A091660188
:1012800089839A83AB83E09173018091720181110C
:1012900007C0EC0FFD2FF11D848180937C013DCFB1
:1012A000813009F03ACF81ED9FEF8C0F9D1F8E0F9B
:1012B000911DFC018081F1CF84B7877F84BF0FB679
:1012C000F894A895809160008861809360001092E6
:1012D00060000FBE81E085BF82E085BF8AB1806378
:1012E0008AB98BB180638BB91BC31FD381E085BFE3
:1012F00015BE0895E1DF78948091010181110AC043
:1013000080917001811106C0F0DFE0916D01F091D4
:101310006E0109956FD4F0CF7F928F929F92AF921A
:10132000BF92CF92DF92EF92FF920F931F93CF93D2
:10133000DF9380918501909186019093780180934D
:10134000770180917901882341F080917901815062
:1013500080937901811101C05D9A80917A0188237F
:1013600041F080917A01815080937A01811101C00E
:101370005C9A80918001833009F4B6C198F4813081
:1013800019F1823009F41FC1DF91CF911F910F91A4
:10139000FF90EF90DF90CF90BF90AF909F908F9095
:1013A0007F900895853009F4BDC108F4B3C186303B
:1013B00059F78091E800877F8093E8005D9A5C9AF6
:1013C00082E0809300012BC05C9883E080937A01D7
:1013D0008091E800877F8093E800809170018823E6
:1013E00029F08ADE5D9A5C9A1092700180917701F3
:1013F00090917801009729F580910001853051F492
:101400008091770190917801892B09F03FC082E0AB
:10141000809300018091E8008B7F8093E800DF914A
:10142000CF911F910F91FF90EF90DF90CF90BF90E1
:10143000AF909F908F907F90C7C12EB3222309F465
:10144000A3CF2091E80022FFF8CF2091F100209354
:10145000710101979093780180937701E2E7F1E0C1
:101460008091F200882381F08091F1008193809136
:10147000770190917801019790937801809377019B
:1014800021E0E737F20761F737DEB6CF8AE10EDEFB
:1014900080916A018F710ADE20916A0130916B019F
:1014A000C0916801D09169012196C21BD30B809134
:1014B0007201811178C0D695C795C90120916C0140
:1014C000A22FB0E04C0120E011E005E033E0732EE4
:1014D000AE0141505109CD2B79F480916801909172
:1014E000690190936B0180936A0181E180935700B9
:1014F000E89580E1DBDD8ECF3091F200332361F19E
:10150000E091F1003091F1006E2F732FFC010B017F
:1015100010935700E89511242F5F6C017D01F2E0D4
:10152000CF0ED11CE11CF11CD701C601203409F5F6
:10153000F40100935700E89507B600FCFDCF411574
:101540005105D1F0F60170925700E89507B600FCFE
:10155000FDCF20E0460110C03091E8003B7F309382
:10156000E8003091E80032FDCBCF3EB33111F9CF26
:101570000BCF41155105E1F2EA01AACF8091F200AB
:101580008823A1F021976091F10080916A019091E8
:101590006B0146D380916A0190916B010196909303
:1015A0006B0180936A01209749F7A3CF8091E800EF
:1015B0008B7F8093E8008091E80082FDE3CF8EB3BB
:1015C0008111F9CFE1CE8091E800877F8093E80018
:1015D0005D9883E0809379018091E80080FF16C0D8
:1015E000809100018930C9F08A30A1F480917201A4
:1015F000813081F490916A0180916B019093F100A8
:101600008093F1008091E8008E7F07CF8EB3811127
:10161000E3CFBACE80917C01F3CF20916A01309163
:101620006B01C0916801D09169012196C21BD30B57
:1016300080917201811131C0D695C795C901209161
:101640006C01A22FB0E0219760F480916801909125
:10165000690190936B0180936A0182E0809300019D
:10166000D1CF2091F200203259F0FC012591349124
:101670002093F1003093F1000296A11DB11DE3CF3C
:101680002091E8002E7F2093E8002091E80020FDC3
:10169000ECCF2EB32111F9CF77CE8230F1F620971F
:1016A000E1F28091F200803291F080916A01909194
:1016B0006B01AED28093F10080916A0190916B0131
:1016C000019690936B0180936A012197E8CF8091F6
:1016D000E8008E7F8093E8008091E80080FDE5CFF0
:1016E0008EB38111F9CF50CE8091E800877F80932F
:1016F000E80080916F018093F1001092F100109248
:10170000F1001092F100809100018093F10010929D
:10171000F10078CF8091E800877F8093E8001092F5
:101720006F017DCE8091E800877F8093E8008091F3
:10173000000166CF292F30E02230310571F02330CF
:10174000310581F021303105D9F482E190E02FE4B8
:1017500031E0FA013183208308958BE190E024E3A6
:1017600031E0F7CF811106C08091300190E020E395
:1017700031E0EFCF8091020190E022E031E0E9CF4B
:1017800090E080E030E020E0E4CFEBEEF0E080811C
:1017900081608083EDEEF0E010826093EC00408386
:1017A0008091EE00881F8827881F08951092F4000A
:1017B0001092F0001092E8001092ED00EBEEF0E0D5
:1017C00080818E7F8083089580917F0187FF11C083
:1017D0008091E80082FF06C08091E8008B7F8093B3
:1017E000E80003C08EB38111F3CF08958EB3882330
:1017F000E1F38091E80080FFF9CF8091E8008E7FCF
:10180000EECF209185013091860126173707A0F091
:101810006115710529F42091E8002E7F2093E800DE
:1018200030E06115710551F4311108C08091E80074
:1018300082FF30C080E00895B901F2CF2091E80026
:1018400023FD30C02091E80022FDF0CF2EB32223EB
:1018500059F12EB3253021F12091E80020FFE1CF8E
:101860002091F200FC01CF016115710511F02032C9
:1018700050F031E0203209F030E02091E8002E7F76
:101880002093E800CECF81918093F10061507109DF
:101890002F5FE9CF8EB3882339F08EB3853031F6D0
:1018A00083E0089581E0089582E0089554D056D0F1
:1018B0001EBA10927D0184E089BD89B5826089BD20
:1018C00009B400FEFDCF8091D800982F9F779093A8
:1018D000D80080688093D800809163008E7F8093C9
:1018E00063008091D8008F7D8093D8008091E000C4
:1018F0008E7F8093E0008091E1008E7F8093E100F5
:101900008091E20081608093E2008091E100877F16
:101910008093E1008091E20088608093E200089566
:10192000C5DF81E080937E010895C0DFE0EEF0E046
:10193000808181608083E8EDF0E080818F77808313
:101940000AD00CD019BCE3E6F0E08081816080838E
:1019500010927E0108951092E20008951092E10025
:1019600008951F920F920FB60F9211242F933F9359
:101970004F935F936F937F938F939F93AF93BF9397
:10198000EF93FF938091E10080FF1BC08091E20004
:1019900080FF17C08091E1008E7F8093E1008091ED
:1019A000E2008E7F8093E2008091E200806180936C
:1019B000E2008091D80080628093D80019BC1EBAE2
:1019C00018D18091E10084FF27C08091E20084FF5C
:1019D00023C084E089BD89B5826089BD09B400FE59
:1019E000FDCF8091D8008F7D8093D8008091E10059
:1019F0008F7E8093E1008091E2008F7E8093E200F1
:101A00008091E20081608093E20080917D018111EC
:101A100048C081E08EBBEDD08091E10083FF22C001
:101A20008091E20083FF1EC08091E100877F809358
:101A3000E10082E08EBB10927D018091E1008E7FFB
:101A40008093E1008091E2008E7F8093E20080919C
:101A5000E20080618093E200A9DE42E260E080E083
:101A600094DEC7D08091E10082FF0AC08091E2003D
:101A700082FF06C08091E1008B7F8093E100B9D0A6
:101A8000FF91EF91BF91AF919F918F917F916F9156
:101A90005F914F913F912F910F900FBE0F901F902C
:101AA000189584E0B7CF1F93CF93DF9300D0CDB7C5
:101AB000DEB7EFE7F1E087E891E02091F1002193B4
:101AC0008E179F07D1F780917F01E0918001EA3066
:101AD00038F5F0E0E359F24F95C0770D8E0D900D7B
:101AE0008E0D900D920DAE0D900DCD0DE00D8D7FF4
:101AF0008038B1F48091E80083FF0AC08091EB0048
:101B000080628093EB008091E800877F8093E800FB
:101B10000F900F90DF91CF911F9108958D7F51F31A
:101B2000FBDBE8CF8111FCCF109181018091E800AF
:101B3000877F8093E80048DE8091E80080FF0AC03C
:101B4000812F8F7792E009F093E09EBB80688093AD
:101B5000E300D0CF8EB38111EFCFCCCF805882304D
:101B6000F8F6AE014F5F5F4F609183018091810174
:101B700090918201DFDDBC01892B09F4BBCF9091EC
:101B8000E800977F9093E80089819A813ADE8091FE
:101B9000E8008B7F8093E800ADCF803809F0C0CF9C
:101BA0008091E800877F8093E80080917D01809399
:101BB000F1008091E8008E7F8093E80005DE9ACFE7
:101BC0008111AECF90918101923008F093CF809136
:101BD000E800877F8093E80090937D01F5DD809198
:101BE0007D01811104C083E08EBB03D083CF84E0EC
:101BF000FBCF08958EB3882321F08091E80083FD08
:101C000052CF0895EE0FFF1F0590F491E02D099437
:101C1000F999FECF92BD81BDF89A992780B50895B4
:101C2000262FF999FECF1FBA92BD81BD20BD0FB6F8
:101C3000F894FA9AF99A0FBE01960895F894FFCF96
:101C400002012C03410072006400750069006E00FF
:101C50006F0020004D006500670061002000320029
:101C600035003600300020004400460055000000DA
:101C70000403090409021B00010100803209040069
:101C80000000FE0102000921030000000C00011207
:101C900001100100000020EB03EF2F000000010005
:081CA0000120DCFB1E94890009
:0400000300001000E9
:00000001FF
